:1000000057C0000073C0000071C000006FC0000046
:100010006DC000006BC0000069C0000067C0000038
:1000200065C0000063C0000061C000005FC0000048
:100030005DC000006EC5000059C0000057C0000040
:1000400055C0000053C0000051C000004FC0000068
:100050004DC000004BC0000049C0000047C0000078
:1000600045C0000043C0000041C000003FC0000088
:100070003DC000003BC0000039C0000037C0000098
:1000800035C0000033C0000031C000008601970178
:100090009A019D01A001A301A601A901AC01BA0129
:1000A000BE01100254029802DC0220036403A8037C
:1000B00011241FBECFEFD0E4DEBFCDBF11E0A0E022
:1000C000B1E0E4E0F2E100E00BBF02C007900D9266
:1000D000AE32B107D9F727E0AEE2B1E001C01D9220
:1000E000A337B207E1F7B1D30C94000989CFCF93BE
:1000F000DF93EC0161D620912E0130912F01C901CF
:100100008C0F9D1F8C3D45E0940758F42817390744
:1001100058F4E901C05DDE4F90932F0180932E01CA
:1001200005C0C0E0D0E002C0C0E0D0E00CD7CE01F6
:10013000DF91CF9108950895FC0103969283818306
:100140002FEF3FEF348323839683858390878783C4
:1001500010820895FC01118610860895CF93DF93D5
:10016000FC01DB0121813281E9018A819B811396A7
:100170009C938E9312978181928115969C938E9376
:1001800014978A819B81EC017D836C83E9017B83D9
:100190006A83728361831996FC93EE93189780812A
:1001A0008F5F8083DF91CF910895CF93DF93EB0131
:1001B000488159814F3F2FEF520731F4DC011796E8
:1001C000ED91FC91189717C0FC013396DC01159650
:1001D0002D913C911697D9012D913C9142175307CF
:1001E00050F00280F381E02DA281B3812D913C91EA
:1001F00042175307B0F7A281B381BB83AA83159638
:10020000DC93CE931497FD83EC83D383C2839987C9
:100210008887FC0120812F5F2083DF91CF91089593
:10022000FC01A281B3818481958115969C938E9364
:100230001497A481B5818281938113969C938E93A8
:100240001297A085B18511968D919C911297E81710
:10025000F90731F48481958112969C938E931197BE
:10026000118610868C9181508C93089593B1809162
:100270006C07882319F0813029F0089581E080937C
:100280006C07089590FD06C081E08093110780936C
:100290001007089510921107089510926C07E6DF79
:1002A00084E690E0D1D6FBCF80916D07882319F0CA
:1002B000813019F004C01BB802C081E08BB9809175
:1002C0006D07882319F0813041F00895809111075E
:1002D000813049F480936D07089580911107811151
:1002E00002C010926D07089510926D07DDDF84E65D
:1002F00090E0AAD6FBCFE0916E078E2F90E0893078
:10030000910560F5FC01EA5BFF4F5BC710920F0798
:1003100010920E0710920D0710920C0710927207A0
:10032000109271071092700710926F0723C081E03E
:1003300082B914C083E082B911C082E082B90EC0D4
:1003400086E082B90BC084E082B908C08CE082B933
:1003500005C088E082B902C089E082B9E0916E07E9
:100360008E2F90E08930910508F034C2FC01E15BEA
:10037000FF4F27C781E080936E0708958091110792
:10038000813019F580916F0790917007843F21E0CB
:10039000920730F401969093700780936F07089549
:1003A00080910E0790910F0720910001309101017B
:1003B0002817390708F40EC2019690930F0780930F
:1003C0000E0782E080936E070895809110078111D7
:1003D00003C010926E070895809171079091720783
:1003E000843F21E0920730F4019690937207809346
:1003F0007107089580910C0790910D0720910001DD
:10040000309101012817390740F0019690930D07AC
:1004100080930C0788E080936E0710921007089570
:10042000809111078130A9F480910E0790910F07F8
:1004300020910001309101012817390708F4CAC141
:10044000019690930F0780930E0783E080936E07C9
:10045000089580911007811103C010926E070895CE
:100460008091710790917207843F21E0920730F4E8
:1004700001969093720780937107089580910C07FD
:1004800090910D0720910001309101012817390743
:1004900040F0019690930D0780930C0782E08093C3
:1004A0006E07109210070895809111078130A9F40A
:1004B00080910E0790910F0720910001309101016A
:1004C0002817390708F486C1019690930F07809387
:1004D0000E0784E080936E070895809110078111C4
:1004E00003C010926E070895809171079091720772
:1004F000843F21E0920730F4019690937207809335
:100500007107089580910C0790910D0720910001CB
:10051000309101012817390740F0019690930D079B
:1005200080930C0782E080936E0710921007089565
:10053000809111078130A9F480910E0790910F07E7
:1005400020910001309101012817390708F442C1B8
:10055000019690930F0780930E0785E080936E07B6
:10056000089580911007811103C010926E070895BD
:100570008091710790917207843F21E0920730F4D7
:1005800001969093720780937107089580910C07EC
:1005900090910D0720910001309101012817390732
:1005A00040F0019690930D0780930C0783E08093B1
:1005B0006E07109210070895809111078130A9F4F9
:1005C00080910E0790910F07209100013091010159
:1005D0002817390708F4FEC0019690930F078093FF
:1005E0000E0786E080936E070895809110078111B1
:1005F00003C010926E070895809171079091720761
:10060000843F21E0920730F4019690937207809323
:100610007107089580910C0790910D0720910001BA
:10062000309101012817390740F0019690930D078A
:1006300080930C0784E080936E0710921007089552
:10064000809111078130A9F480910E0790910F07D6
:1006500020910001309101012817390708F4BAC030
:10066000019690930F0780930E0787E080936E07A3
:10067000089580911007811103C010926E070895AC
:100680008091710790917207843F21E0920730F4C6
:1006900001969093720780937107089580910C07DB
:1006A00090910D0720910001309101012817390721
:1006B00040F0019690930D0780930C0785E080939E
:1006C0006E07109210070895809111078130A9F4E8
:1006D00080910E0790910F07209100013091010148
:1006E0002817390708F476C0019690930F07809376
:1006F0000E0788E080936E0708958091100781119E
:1007000003C010926E07089580917107909172074F
:10071000843F21E0920730F4019690937207809312
:100720007107089580910C0790910D0720910001A9
:10073000309101012817390740F0019690930D0779
:1007400080930C0786E080936E071092100708953F
:10075000809111078130A1F480910E0790910F07CD
:1007600020910001309101012817390798F1019675
:1007700090930F0780930E0781E080936E07089592
:1007800080911007811103C010926E070895809127
:10079000710790917207843F21E0920730F401962F
:1007A0009093720780937107089580910C07909140
:1007B0000D0720910001309101012817390740F001
:1007C000019690930D0780930C0787E080936E0746
:1007D00010921007089510926E078DDD83E090E06F
:1007E00033D4FBCFAF92BF92CF92DF92EF92FF92C2
:1007F0000F93CF93A12CB12CC12CD12CE12CF12C37
:10080000082F20E030E045E550E064E071E08DE441
:1008100091E0B6D120E030E045E550E06FE071E0D6
:1008200084E791E0ADD120E030E045E550E06CE1B7
:1008300071E08BEE93E0A4D1CF910F91FF90EF90F8
:10084000DF90CF90BF90AF90089514B88FEF85B927
:100850008AB91BB881B912B881E0C4DF84D280E0C4
:1008600090E0089531E1FC013083319722E220834A
:100870003197A3E3A08331976083319770833197D9
:100880001082319760E8608331971082319762E07F
:100890006083319763E06083319764E060833197D0
:1008A00065E06083319766E06083319767E060833D
:1008B000319768E06083319769E06083319760E148
:1008C000608331973083319732E13083319733E160
:1008D0003083319734E13083319735E1308331977C
:1008E00036E13083319737E13083319738E1308317
:1008F000319739E13083319730E23083319731E2FB
:10090000308331972083319723E2208331974083CE
:1009100031975083319726E22083319727E2208355
:10092000319728E22083319729E22083319720E311
:100930002083319721E320838697089510928900C0
:100940008CE7809388008BE080938100EFE6F0E0F5
:10095000808182608083A0916A07B0916B07CD91FE
:10096000CDBFDD91DEBFFF91EF91DF91CF91BF91C0
:10097000AF919F918F917F916F915F914F913F9137
:100980002F911F910F91FF90EF90DF90CF90BF902C
:10099000AF909F908F907F906F905F904F903F901F
:1009A0002F901F900F900FBE0F90089581E0089533
:1009B0000F920FB6F8940F921F9211242F923F922C
:1009C0004F925F926F927F928F929F92AF92BF925F
:1009D000CF92DF92EF92FF920F931F932F933F934B
:1009E0004F935F936F937F938F939F93AF93BF9337
:1009F000CF93DF93EF93FF93A0916A07B0916B07BA
:100A00000DB60D920EB60D9270D3A0916A07B091FB
:100A10006B07CD91CDBFDD91DEBFFF91EF91DF91EF
:100A2000CF91BF91AF919F918F917F916F915F9186
:100A30004F913F912F911F910F91FF90EF90DF9079
:100A4000CF90BF90AF909F908F907F906F905F906E
:100A50004F903F902F901F900F900FBE0F900895D2
:100A60000F920FB6F8940F921F9211242F923F927B
:100A70004F925F926F927F928F929F92AF92BF92AE
:100A8000CF92DF92EF92FF920F931F932F933F939A
:100A90004F935F936F937F938F939F93AF93BF9386
:100AA000CF93DF93EF93FF93A0916A07B0916B0709
:100AB0000DB60D920EB60D9285D117D3A0916A078F
:100AC000B0916B07CD91CDBFDD91DEBFFF91EF916E
:100AD000DF91CF91BF91AF919F918F917F916F9156
:100AE0005F914F913F912F911F910F91FF90EF9048
:100AF000DF90CF90BF90AF909F908F907F906F903E
:100B00005F904F903F902F901F900F900FBE0F90CF
:100B10000895A6DF1895CF93DF93EC01E0916A0763
:100B2000F0916B079383828380911A0790911B0742
:100B3000C817D90760F460916A0770916B078091BC
:100B40003007909131076E5F7F4F2FDB16C06091A9
:100B50006A0770916B0780913207909133076E5F3F
:100B60007F4F23DB8091020190910301C817D907C1
:100B700020F4D0930301C0930201DF91CF91089537
:100B80004F925F926F927F928F929F92AF92BF929D
:100B9000CF92DF92EF92FF920F931F93CF93DF9349
:100BA0005C014B013A01290181E290E0A0DAEC01FD
:100BB000892B09F4C6C0C114D10409F0BEC0C30119
:100BC00096DA988F8F8B009719F4CE01B4DAB9C0FA
:100BD000A30165EA70E0FED29301215031098F89AB
:100BE000988D3C01620E731E48E050E0B401CE01C6
:100BF0004996F7D218A2102F043008F013E01E8B8C
:100C00006E0182E0C80ED11CC601A4DACE010C969A
:100C1000A1DAD987C88784E090E0811B91099D877C
:100C20008C87DB8BCA8BA201B501C3011BDE9983C4
:100C30008883E114F10419F0F701D183C0830FB662
:100C4000F8940F9280911C078F5F80931C0780910E
:100C50006A0790916B07892B69F5D0936B07C09356
:100C60006A0780911C078130A1F586E497E064DA79
:100C70008FE497E061DA88E597E05EDA81E697E055
:100C80005BDA8DE397E058DA84E397E055DA87E2A0
:100C900097E052DA8EE197E04FDA8DE397E0909398
:100CA00033078093320784E397E090933107809372
:100CB00030070FC08091170781110BC0E0916A07C0
:100CC000F0916B078689081720F0D0936B07C093CB
:100CD0006A078E8990911907981710F48093190765
:100CE000909112079F5F90931207909118079817A1
:100CF00010F48093180790E09C01220F331F220FFD
:100D0000331F220F331F820F931FB6018A5B984F48
:100D100025DA0F900FBE80911707882351F0E091DC
:100D20006A07F0916B078689801728F441DE81E01D
:100D300009C081E007C081E005C0D88ECF8AC60116
:100D400047CF8FEFDF91CF911F910F91FF90EF90E1
:100D5000DF90CF90BF90AF909F908F907F906F90DB
:100D60005F904F900895AF92BF92CF92DF92EF9233
:100D7000FF920F93A12CB12CC12CD12CE12CF12C82
:100D800000E020E030E045E550E069E271E08FE30B
:100D900098E0F6DE813041F4F894809317071092C2
:100DA0001B0710921A07CADD0F91FF90EF90DF909A
:100DB000CF90BF90AF900895809116078F5F80937A
:100DC000160708950F931F93CF93DF938091160713
:100DD0008111AFC080911A0790911B0701969093E3
:100DE0001B0780931A0780911A0790911B07892B84
:100DF00099F5809132079091330720913007309117
:100E00003107309333072093320790933107809353
:100E10003007809113078F5F80931307E0913207AB
:100E2000F09133078081811107C08FEF9FEF90937E
:100E300003018093020110C0E0913207F091330763
:100E40000580F681E02D0680F781E02D8281938177
:100E5000909303018093020120911A0730911B07A0
:100E600080910201909103012817390708F466C0A8
:100E7000E0913207F09133078081882399F0E09167
:100E80003207F09133070580F681E02DC681D781C6
:100E90008A819B8120911A0730911B0728173907F7
:100EA000F8F419C08FEF9FEF909303018093020134
:100EB00045C0E0913207F09133070580F681E02DBF
:100EC000C681D7818A819B8120911A0730911B07A7
:100ED0002817390728F490930301809302012EC04C
:100EE0008E010E5F1F4FC8019BD98C899D89892B6C
:100EF00019F0CE010C9694D98E8990911807981705
:100F000010F48093180790E09C01220F331F220FEA
:100F1000331F220F331F820F931FB8018A5B984F34
:100F20001DD9E0913207F091330780818111C1CF43
:100F3000B9CF809115078F5F80931507DF91CF910F
:100F40001F910F910895CF92DF92EF92FF920F932E
:100F50001F93CF93DF930FB6F8940F9280911607EB
:100F60008150809316078091160781115FC0809190
:100F70001C0781112FC05DC0D7011596ED91FC9122
:100F80001697C681D781CE010C964AD98E010E5F85
:100F90001F4FC80145D98E8990911807981710F4F2
:100FA0008093180790E09C01220F331F220F331FFC
:100FB000220F331F820F931FB8018A5B984FCED840
:100FC000E0916A07F0916B079E898689981758F01F
:100FD000DC2C09C0D12C0F2EF7E2EF2EF7E0FF2E0C
:100FE000F02DCC24C394F70180818111C5CF80916D
:100FF0001507882379F080911507882391F0E2DEA8
:1010000080911507815080931507809115078111F4
:10101000F6CF07C0F1E0DF1621F080911407813090
:1010200039F410921407C4DC81E003C080E001C0F1
:1010300080E00F900FBEDF91CF911F910F91FF9035
:10104000EF90DF90CF900895CF93DF93EC01892B41
:1010500091F0B2DE80911A0790911B07C80FD91F3B
:1010600080916A0790916B070296DAD8CE0153DD22
:101070006ADF811101C09CDCDF91CF9108950F2EB2
:10108000FEE1EF2EF7E0FF2EF02DC6E4D7E08091D1
:101090001D07882329F190DED7011C9154DF11230D
:1010A000F9F00FB6F8940F92D7011596ED91FC91D7
:1010B000169706811781C8010296B2D880911C0745
:1010C000815080931C0780911D07815080931D07DC
:1010D0000F900FBEF8018789908D2DD8C8012BD8AD
:1010E00088818230A0F264DCD2CF80911607811112
:1010F00013C08091180790E0FC01EE0FFF1FEE0F68
:10110000FF1FEE0FFF1F8E0F9F1FFC01EA5BF84FC2
:101110008081882329F01BC081E080931407089503
:10112000809118078150809318078091180790E0EC
:10113000FC01EE0FFF1FEE0FFF1FEE0FFF1F8E0FC4
:101140009F1FFC01EA5BF84F8081882349F380915F
:10115000180790E09C01220F331F220F331F220F2C
:10116000331F280F391FD901AA5BB84F1196ED9193
:10117000FC9112970280F381E02D1296FC93EE937E
:101180001197275B384FE217F30729F42281338147
:10119000FD0132832183FC01EE0FFF1FEE0FFF1FC5
:1011A000EE0FFF1F8E0F9F1FFC01EA5BF84F0180BF
:1011B000F281E02D8681978190936B0780936A0777
:1011C0000895EE0FFF1F0024001C0BBE0790F69140
:1011D000E02D0994DC0101C06D9341505040E0F7CF
:1011E0000895FB01DC014150504048F001900D9200
:1011F0000020C9F701C01D9241505040E0F708950A
:04120000F894FFCF90
:101204000004FFFF4C65645365635461736B004CC9
:10121400696768745365635461736B004D6F746FD1
:0E122400725365635461736B0049444C45007E
:00000001FF
